S00F0000486F72697A6F6E2E737265632C
S11300000C942A000C9449060C9470060C949706E0
S11300100C9490070C9447000C94F2060C9447003F
S11300200C9447000C9447000C9447000C94180857
S11300300C9447000C9447000C9447000C94470020
S11300400C9447000C9447000C9447000C94470010
S11300500C94470011241FBECFE5D8E0DEBFCDBF0E
S113006010E0A0E6B0E0E6EBF3E102C005900D92EB
S1130070AE39B107D9F720E0AEE9B0E001C01D9276
S1130080A73BB207E1F70E9498000C94D9090C949D
S1130090000080919F009091A00001969093A00091
S11300A080939F00089580919E0081110FC010924B
S11300B0A00010929F0080E090E00E94B70782E0C9
S11300C00E94C10781E080939E000895813041F52C
S11300D082E00E94090882B760E070E070919F009E
S11300E0680F711D072E000C880B990B0E9477086E
S11300F02091600030916100409162005091630052
S11301000E94030920E030E048E851E40E9403091A
S11301100E943F087093A2006093A10010929E0079
S113012008950E94F30284E690E00E94F702089585
S11301300E94BE060E9427040E94F4040E94AC029E
S11301400E945D0389E490E00E94130882E00E940B
S1130150260683E590E00E9444068CE294E00E9427
S11301608B070E94FD040E94DA030E949100809193
S1130170A1009091A2000E940A0389E690E00E94E7
S1130180F70261E080E00E9451038CE690E00E9457
S1130190F7022FEF83ED90E3215080409040E1F788
S11301A000C000000E94D4048091A1009091A2009C
S11301B09093A4008093A3000E94E4048091A10082
S11301C09091A2009093A6008093A5002091A30093
S11301D03091A400243231051CF18432910504F1DC
S11301E00E94DA030E9491008091A1009091A200E4
S11301F00E940A0389E690E00E94F70261E080E031
S11302000E9451038CE690E00E94F7022FEF83EDE9
S113021090E3215080409040E1F700C00000B4C05A
S1130220843291050CF445C0233231050CF041C0F1
S11302300E94ED030E9409040E9491008091A30092
S11302409091A4000E940A0389E690E00E94F702BC
S113025061E080E00E9451038BE790E00E94F70286
S11302602FEF89E698E1215080409040E1F700C0EB
S113027000000E94DA030E9491008091A5009091F1
S1130280A6000E940A0389E690E00E94F70261E05A
S113029080E00E9451038CE690E00E94F7022FEF69
S11302A083ED90E3215080409040E1F700C00000CE
S11302B06BC083970CF045C0243231050CF441C067
S11302C00E94ED030E94FB030E9491008091A5000F
S11302D09091A6000E940A0389E690E00E94F7022A
S11302E061E080E00E9451038DE890E00E94F702F3
S11302F02FEF89E698E1215080409040E1F700C05B
S113030000000E94DA030E9491008091A300909162
S1130310A4000E940A0389E690E00E94F70261E0CB
S113032080E00E9451038CE690E00E94F7022FEFD8
S113033083ED90E3215080409040E1F700C000003D
S113034023C00E94ED030E9417040E94DA030E9456
S113035091008091A1009091A2000E940A0389E675
S113036090E00E94F70261E080E00E9451038CE675
S113037090E00E94F7022FEF83ED90E3215080403C
S11303809040E1F700C000001092A2001092A1007A
S11303901092A6001092A5001092A4001092A3003F
S11303A0E0CE61E08BE00E949B058FE99FE001971E
S11303B0F1F700C0000060E08BE00E949B05089507
S11303C0CF93C82F60E08AE00E949B0561E089E03A
S11303D00E949B056C2F607170E07595679575950B
S11303E06795759567957595679584E00E949B055B
S11303F06C2F607270E07595679575956795759526
S11304006795759567957595679585E00E949B0539
S11304106C2F607470E0062E672F000C661F770B3C
S1130420000C661F771F86E00E949B056C2F661FD9
S11304306627661F87E00E949B050E94D1016C2FEE
S1130440617084E00E949B056C2F627070E075956A
S1130450679585E00E949B056C2F647070E075952C
S113046067957595679586E00E949B05C8706C2F0B
S113047070E075956795759567957595679587E0AF
S11304800E949B050E94D101CF910895CF93C82F5C
S113049060E08AE00E949B0560E089E00E949B0581
S11304A06C2F607170E07595679575956795759576
S11304B067957595679584E00E949B056C2F607223
S11304C070E07595679575956795759567957595BC
S11304D067957595679585E00E949B056C2F607400
S11304E070E0062E672F000C661F770B000C661F4A
S11304F0771F86E00E949B056C2F661F6627661F88
S113050087E00E949B050E94D1016C2F617084E0FA
S11305100E949B056C2F627070E07595679585E06D
S11305200E949B056C2F647070E0759567957595B6
S1130530679586E00E949B05C8706C2F70E07595E6
S11305406795759567957595679587E00E949B05F6
S11305500E94D101CF91089561E084E00E941005CA
S113056061E085E00E94100561E086E00E941005CC
S113057061E087E00E94100561E089E00E941005B7
S113058061E08AE00E94100561E08BE00E941005A2
S11305902FEF86E791E0215080409040E1F700C0C2
S11305A0000082E00E94460288E20E9446028FE92F
S11305B09FE00197F1F700C000008FE00E9446021F
S11305C08FE99FE00197F1F700C0000081E00E94ED
S11305D046028FE39FE10197F1F700C0000086E037
S11305E00E944602089581E00E94460208950F93F6
S11305F01F93CF938C01C0E003C00E94E001CF5F42
S1130600F801EC0FF11D80818111F7CFCF911F917B
S11306100F9108950F931F93CF93DF9300D000D0D1
S11306201F92CDB7DEB78C01009721F480E30E94BE
S1130630E0012DC099231CF48DE20E94E00120E02A
S113064012C0C8016AE070E00E947009E1E0F0E0C5
S1130650EC0FFD1FE20FF11D27FDFA95805D8083ED
S1130660062F172F2F5F101611065CF30EC01FEF15
S1130670120FE1E0F0E0EC0FFD1FE20FF11D27FD8A
S1130680FA9580810E94E001212F222384F70F90A4
S11306900F900F900F900F90DF91CF911F910F91BA
S11306A00895611104C080580E9446020895613083
S11306B019F480540E944602089561E083E10E9487
S11306C0100561E084E10E94100561E08CE10E9464
S11306D0100561E085E10E94100561E086E10E9459
S11306E0100561E08DE10E9410050E94C20689E1B7
S11306F090E00E94D806089560E083E10E949B0583
S113070061E084E10E949B0561E08CE10E949B050D
S113071084EF91E00E94D506089561E083E10E9490
S11307209B0560E084E10E949B0561E08CE10E94EE
S11307309B058AEF90E00E94D506089561E085E16B
S11307400E949B0560E086E10E949B0561E08DE1CB
S11307500E949B0584EF91E00E94D506089560E015
S113076085E10E949B0561E086E10E949B0561E0B2
S11307708DE10E949B058AEF90E00E94D5060895C2
S113078060E083E10E949B0560E084E10E949B0598
S113079060E08CE10E949B05089560E085E10E9481
S11307A09B0560E086E10E949B0560E08DE10E946C
S11307B09B0508950E947C030E949E0308950E9455
S11307C08D030E94AF032FEF89E698E1215080400A
S11307D09040E1F700C0000008950E94C0030E9409
S11307E0CD032FEF83ED90E3215080409040E1F75B
S11307F000C0000008950E94C0030E94AF032FEFC1
S113080089E698E1215080409040E1F700C0000063
S113081008950E94CD030E948D032FEF89E698E18D
S1130820215080409040E1F700C0000008950E94EC
S1130830DF030E947C030E94AF032FEF89E698E157
S1130840215080409040E1F700C00000089561E02D
S11308508FE10E94100508958091A9009091AA004B
S113086001969093AA008093A90008950E94190705
S113087089EF90E00E9489078091A800811111C03E
S11308801092AA001092A9000E94870783E00E9498
S1130890290760E08FE10E949B0581E08093A80016
S11308A00895813071F48091A9009091AA00019774
S11308B059F561E08FE10E949B0582E08093A800D6
S11308C008958230A1F48091A9009091AA00029722
S11308D0D9F460E08FE10E949B0585B58F7E85BDCC
S11308E085B5806285BD83E08093A8000895833038
S11308F059F48091A9009091AA00449729F483E0C7
S11309000E947D071092A80008950E94190789EF9C
S113091090E00E9489078091A700811111C0109274
S1130920AA001092A9000E94870784E00E94290768
S113093060E08FE10E949B0581E08093A700089509
S1130940813071F48091A9009091AA00019759F522
S113095061E08FE10E949B0582E08093A7000895E7
S11309608230A1F48091A9009091AA000297D9F451
S113097060E08FE10E949B0585B58F7E85BD85B5BE
S1130980806285BD83E08093A7000895833059F485
S11309908091A9009091AA000A9729F484E00E940A
S11309A07D071092A70008950E9427040E948504E1
S11309B00E94FD042FEF83ED90E32150804090408E
S11309C0E1F700C0000008950E9427040E94360445
S11309D00E94FD042FEF83ED90E32150804090406E
S11309E0E1F700C00000089561E089E10E9410056C
S11309F060E08AE10E941005089561E089E10E94A7
S1130A009B0585E38A95F1F7000060E089E10E9487
S1130A109B058FE99FE00197F1F700C0000008955E
S1130A20883000F561110EC04AB321E030E0B9010D
S1130A3002C0660F771F8A95E2F7CB018095842365
S1130A408ABB0895613009F075C04AB321E030E0F3
S1130A50B90102C0660F771F8A95E2F7CB01842B98
S1130A608ABB089598EF980F983000F561110EC075
S1130A7047B321E030E0B90102C0660F771F9A95B1
S1130A80E2F7CB018095842387BB0895613009F098
S1130A9051C047B321E030E0B90102C0660F771FAF
S1130AA09A95E2F7CB01842B87BB089590EF980FBA
S1130AB09830F8F461110EC044B321E030E0B9017C
S1130AC002C0660F771F9A95E2F7CB0180958423C5
S1130AD084BB0895613071F544B321E030E0B9017D
S1130AE002C0660F771F9A95E2F7CB01842B84BB73
S1130AF0089588518830F0F461110EC041B321E0AB
S1130B0030E0B90102C0660F771F8A95E2F7CB0186
S1130B108095842381BB0895613061F441B321E061
S1130B2030E0B90102C0660F771F8A95E2F7CB0166
S1130B30842B81BB0895883000F561110EC04BB33E
S1130B4021E030E0B90102C0660F771F8A95E2F711
S1130B50CB01809584238BBB0895613009F075C067
S1130B604BB321E030E0B90102C0660F771F8A95CC
S1130B70E2F7CB01842B8BBB089598EF980F983044
S1130B8000F561110EC048B321E030E0B90102C0A4
S1130B90660F771F9A95E2F7CB018095842388BB73
S1130BA00895613009F051C048B321E030E0B90143
S1130BB002C0660F771F9A95E2F7CB01842B88BB9E
S1130BC0089590EF980F9830F8F461110EC045B372
S1130BD021E030E0B90102C0660F771F9A95E2F771
S1130BE0CB018095842385BB0895613071F545B3AD
S1130BF021E030E0B90102C0660F771F9A95E2F751
S1130C00CB01842B85BB089588518830F0F46111A1
S1130C100EC042B321E030E0B90102C0660F771F75
S1130C208A95E2F7CB018095842382BB08956130D5
S1130C3061F442B321E030E0B90102C0660F771FCE
S1130C408A95E2F7CB01842B82BB0895813039F475
S1130C5085B7816085BF85B7826085BF11C081116A
S1130C6007C085B78E7F85BF85B7826085BF08C002
S1130C70823031F485B7816085BF85B78D7F85BFAC
S1130C808BB780648BBF08959093B0008093AF00BE
S1130C9008951F920F920FB60F9211242F933F9332
S1130CA04F935F936F937F938F939F93AF93BF9370
S1130CB0EF93FF93E091AF00F091B0000995FF919D
S1130CC0EF91BF91AF919F918F917F916F915F91C0
S1130CD04F913F912F910F900FBE0F901F90189539
S1130CE01F920F920FB60F9211242F933F934F939D
S1130CF05F936F937F938F939F93AF93BF93EF9380
S1130D00FF93E091AB00F091AC000995FF91EF9156
S1130D10BF91AF919F918F917F916F915F914F910F
S1130D203F912F910F900FBE0F901F9018951F9217
S1130D300F920FB60F9211242F933F934F935F930B
S1130D406F937F938F939F93AF93BF93EF93FF938F
S1130D50E091AD00F091AE000995FF91EF91BF9144
S1130D60AF919F918F917F916F915F914F913F913F
S1130D702F910F900FBE0F901F9018958FB780681A
S1130D808FBF08958FB581608FBD8FB58D7F8FBD67
S1130D908EB5877F8EBD8EB580618EBD8FB58F7BFE
S1130DA08FBD8FB580688FBD08959BBD8ABD0895A2
S1130DB09695982F8827979587959C0140E050E059
S1130DC060E074E284EF90E00E94840937BD26BDA0
S1130DD08EB581608EBD8EB582608EBD8EB58B7FE3
S1130DE08EBD08951F920F920FB60F9211242F9368
S1130DF03F934F935F936F937F938F939F93AF939F
S1130E00BF93EF93FF93E091B100F091B200099585
S1130E10FF91EF91BF91AF919F918F917F916F91CE
S1130E205F914F913F912F910F900FBE0F901F90A4
S1130E30189585B58F7B85BD85B5886085BD89B7D7
S1130E40826089BF85B5806185BD85B58F7D85BD8F
S1130E50089581110AC085B5816085BD85B58D7FF2
S1130E6085BD85B58B7F85BD0895813051F485B5E9
S1130E708E7F85BD85B5826085BD85B58B7F85BD3B
S1130E800895823051F485B5816085BD85B5826051
S1130E9085BD85B58B7F85BD0895833051F485B5B7
S1130EA08E7F85BD85B58D7F85BD85B5846085BD07
S1130EB00895843051F485B5816085BD85B58D7FF5
S1130EC085BD85B5846085BD0895853051F485B5AB
S1130ED08E7F85BD85B5826085BD85B5846085BD01
S1130EE00895863049F485B5816085BD85B58260F5
S1130EF085BD85B5846085BD089585B58E7F85BD26
S1130F0085B58D7F85BD85B58B7F85BD089584BDF1
S1130F10089583BD08959093B4008093B300089519
S1130F201F920F920FB60F9211242F933F934F935A
S1130F305F936F937F938F939F93AF93BF93EF933D
S1130F40FF93E091B300F091B4000995FF91EF9104
S1130F50BF91AF919F918F917F916F915F914F91CD
S1130F603F912F910F900FBE0F901F90189583B74C
S1130F708F7B83BF83B7877F83BF89B7816089BF36
S1130F80089581110AC083B7816083BF83B78D7FC1
S1130F9083BF83B78B7F83BF0895813051F483B7B8
S1130FA08E7F83BF83B7826083BF83B78B7F83BF0A
S1130FB00895823051F483B7816083BF83B7826020
S1130FC083BF83B78B7F83BF0895833051F483B786
S1130FD08E7F83BF83B78D7F83BF83B7846083BFD6
S1130FE00895843051F483B7816083BF83B78D7FC4
S1130FF083BF83B7846083BF0895853049F483B782
S1131000816083BF83B7826083BF83B7846083BFFB
S1131010089583B78E7F83BF83B78D7F83BF83B7E4
S11310208B7F83BF08959093B6008093B500089595
S11310301F920F920FB60F9211242F933F934F9349
S11310405F936F937F938F939F93AF93BF93EF932C
S1131050FF93E091B500F091B6000995FF91EF91EF
S1131060BF91AF919F918F917F916F915F914F91BC
S11310703F912F910F900FBE0F901F9018950E94D3
S113108046086894B1110C94FD0808950E94E20882
S113109088F09F5798F0B92F9927B751B0F0E1F035
S11310A0660F771F881F991F1AF0BA95C9F714C0E5
S11310B0B13091F00E94FC08B1E008950C94FC0852
S11310C0672F782F8827B85F39F0B93FCCF386951E
S11310D077956795B395D9F73EF49095809570957B
S11310E061957F4F8F4F9F4F0895E89409C097FBF8
S11310F03EF490958095709561957F4F8F4F9F4FEB
S11311009923A9F0F92F96E9BB279395F69587952E
S113111077956795B795F111F8CFFAF4BB0F11F4F1
S113112060FF1BC06F5F7F4F8F4F9F4F16C0882398
S113113011F096E911C0772321F09EE8872F762FCE
S113114005C0662371F096E8862F70E060E02AF00F
S11311509A95660F771F881FDAF7880F96958795FB
S113116097F9089597F99F6780E870E060E0089523
S11311709FEF80EC089500240A94161617061806AB
S11311800906089500240A94121613061406050687
S11311900895092E0394000C11F4882352F0BB0F18
S11311A040F4BF2B11F460FF04C06F5F7F4F8F4F7B
S11311B09F4F089557FD9058440F551F59F05F3FB6
S11311C071F04795880F97FB991F61F09F3F79F065
S11311D087950895121613061406551FF2CF4695E7
S11311E0F1DF08C0161617061806991FF1CF869569
S11311F07105610508940895E894BB27662777274D
S1131200CB0197F908950E9416090C94C9080E940D
S1131210BB0838F00E94C20820F0952311F00C940A
S1131220B2080C94B80811240C94FD080E94DA0842
S113123070F3959FC1F3950F50E0551F629FF00125
S1131240729FBB27F00DB11D639FAA27F00DB11D3E
S1131250AA1F649F6627B00DA11D661F829F2227C7
S1131260B00DA11D621F739FB00DA11D621F839F4E
S1131270A00D611D221F749F3327A00D611D231F24
S1131280849F600D211D822F762F6A2F11249F5772
S113129050409AF0F1F088234AF0EE0FFF1FBB1F75
S11312A0661F771F881F91505040A9F79E3F510534
S11312B080F00C94B2080C94FD085F3FE4F3983E70
S11312C0D4F3869577956795B795F795E7959F5FDE
S11312D0C1F7FE2B880F911D9695879597F9089570
S11312E097FB072E16F4009407D077FD09D00E94CF
S11312F0A30907FC05D03EF4909581959F4F08956E
S1131300709561957F4F0895052E97FB1EF4009408
S11313100E949B0957FD07D00E94B70907FC03D020
S11313204EF40C949B0950954095309521953F4F70
S11313304F4F5F4F089590958095709561957F4FBD
S11313408F4F9F4F0895AA1BBB1B51E107C0AA1FD3
S1131350BB1FA617B70710F0A61BB70B881F991F52
S11313605A95A9F780959095BC01CD010895A1E205
S11313701A2EAA1BBB1BFD010DC0AA1FBB1FEE1F0B
S1131380FF1FA217B307E407F50720F0A21BB30B56
S1131390E40BF50B661F771F881F991F1A9469F7D2
S11313A060957095809590959B01AC01BD01CF012E
S10913B00895F894FFCF3C
S11313B66F12833B64203D2000636D004361725FBE
S11313C6476F5F466F7277617264005475726E6917
S11313D66E675F4261636B52696768740054757225
S11113E66E696E675F4261636B6C65667400CE
S9030000FC
